COMP ELEC BATCHDIL/ELECCAP MAN      4033 25/02/2015 23h550000000                                              
EXIS          140006978002FOURREAU FAISCEAU COFFRE AR             1400069780 B        Y          OCM          
EXIS          140006998003GOUTTIERE FAISCEAU HABITACLE            1400069980 C        F          OCM          
EXIS          140013418000FOURREAU FAISCEAU VOLET AR              1400134180OR        F          OCM          
EXIS          140013418A..FOURREAU FAISCEAU VOLET AR              140013418AOR        -          EC           
EXIS          140016768001GOUTTIERE FAISCEAU PRINCIPAL            1400167680 A        F          OCM          
EXIS          140027318001PRISE PERIPHERIQUE VIDEO                1492690080 D        F          OCM          
EXIS          140027358003SUPPORT FAISCEAU HABITACLE              1400273580 C        F          OCM          
EXIS          140031438000AFFICHEUR MULTIFONCTION                 1400314380OR        F          OCM          
EXIS          140032588005PROTECTEUR FAISCEAU                     1400325880 E        F          OCM          
EXIS          140033848001GOUTTIERE FAISCEAU HABITACLE            1400338480 A        F          OCM          
EXIS          140036278000TUYAUTERIE LAVE-VITRE ENS               1493904080 E        F          OCM          
EXIS          140037238001FOURREAU FAISCEAU VOLET AR              1400372380 B        -          OCM          
EXIS          140048898001ELECTROVANNE HYDRAULIQUE 3 VOIE         1400488980 A        F          OCM          
EXIS          140055078002BOITE MATRICE FUSIBLE AV                1400550780 B        F          OCM          
EXIS          140095878000BOITIER TEMOIN NON BOUCLAGE C-S         1400314380 B        F          OCM          
EXIS          140096988001CABLE ECRAN VIDEO MULTIFONCTION         1400969880 A        -          OCM          
EXIS          140099988000BRUITEUR COMMANDE HAUTEUR               1400999880OR        F          OCM          
EXIS          140104068000OBTURATEUR TUYAU LAVE-VITRE             1401040680OR        F          OCM          
EXIS          140110448005GOUTTIERE LAT AV D FAISCEAU HABITACLE   1401104480 F        F          OCM          
EXIS          140110448A..GOUTTIERE LAT AV D FAISCEAU HABITACLE   140110448AOR        F          EC           
EXIS          140115348001CABLE ECRAN VIDEO MULTIFONCTION         1401153480 A        -          OCM          
EXIS          140116088000CABLE ECRAN VIDEO MULTIFONCTION         1401160880OR        -          OCM          
EXIS          140116468000CABLE ECRAN VIDEO MULTIFONCTION         1401164680OR        -          OCM          
EXIS          140116958000SUPPORT CONNECTEUR                      1401169580OR        -          OCM          
EXIS          140118078001P-LANG 1,5 2,8 MCP ETANCHE 12V          1401180780 A        -          OCM          
EXIS          140125658001P-LANG 1,5 2,8 MCP ETANCHE 12V          1401180780 A        -          OCM          
EXIS          140127088002LANG 2,8 MCP JOINT                      1401270880 B        -          OCM          
EXIS          140127228000JOINT LANG 2,8 MCP                      1401272280OR        -          OCM          
EXIS          140127238000JOINT LANG 2,8 MCP                      1401272380OR        -          OCM          
EXIS          140127248000LANG 1,6X0,6 MCP JOINT                  1401272480OR        A          OCM          
EXIS          140127258000JOINT LANG 1,6 MCP                      1401272580OR        -          OCM          
EXIS          140131548000CABLE ECRAN VIDEO MULTIFONCTION         1401315480OR        -          OCM          
EXIS          140140428001FOURREAU FAISCEAU PORTE AV ASS          1401404280 A        F          OCM          
EXIS          140141138001FOURREAU FAISCEAU PORTE AR ASS          1401411380 A        F          OCM          
EXIS          144005008000ELECTROPOMPE ASSISTANCE DIRECTION       1440050080OR        F          OCM          
SUPP          144024617700BLOC COMMUTATEUR MULTIFONCTION                              -          OCM          
SUPP          144024627700BLOC COMMUTATEUR MULTIFONCTION                              -          OCM          
SUPP          144024637700BLOC COMMUTATEUR MULTIFONCTION                              -          OCM          
EXIS          144024647700BLOC COMMUTATEUR MULTIFONCTION          1400245677 B        -          OCM          
EXIS          144024657700BLOC COMMUTATEUR MULTIFONCTION          1400245677 B        -          OCM          
EXIS          144024667700BLOC COMMUTATEUR MULTIFONCTION          1400245677 B        -          OCM          
EXIS          144024677700BLOC COMMUTATEUR MULTIFONCTION          1400245677 B        -          OCM          
EXIS          144029968001LANG 2,8 MCP JOINT                      1401270880 B        -          OCM          
EXIS          144029978000CLIP 2,8 MCP JOINT                      1440299780OR        -          OCM          
EXIS          144029988000CLIP 2,8 MCP JOINT                      1440299780OR        -          OCM          
EXIS          144030008000CLIP 1,5 MCP JOINT                      1440300080OR        -          OCM          
EXIS          144030018000CLIP 1,5 MCP JOINT                      1440300080OR        -          OCM          
EXIS          144030028001P-LANG 1,5 2,8 MCP ETANCHE 24V          1440300280 A        -          OCM          
EXIS          144030038001P-CLIP 1,5 2,8 MCP ETANCHE 24V          1440300380 A        -          OCM          
EXIS          144030048001P-CLIP 1,5 2,8 MCP ETANCHE 24V          1440300380 A        -          OCM          
EXIS          146062208001FOURREAU FAISCEAU VOLET AR              1460622080 A        -          OCM          
EXIS          147196908002SURMOULAGE PASSE-GAINE                  1471969080 B        -          OCM          
EXIS          147238208000SURMOULAGE PASSE-GAINE                  1472382080OR        -          OCM          
EXIS          147274208009SUPPORT BOITE FUSIBLE                   1472742080 N        -          OCM          
EXIS          147280508000FOURREAU FAISCEAU PORTE                 1472805080OR        -          OCM          
EXIS          147280608000FOURREAU FAISCEAU PORTE                 1472806080OR        -          OCM          
EXIS          147393108004PROTECTEUR FAISCEAU                     1473931080 E        -          OCM          
EXIS          147400708010SUPPORT BOITE FUSIBLE                   1472742080 N        -          OCM          
EXIS          147405308003CAPOT CONNECTEUR BRIDAGE FAISCEAU       1474053080 C        -          OCM          
EXIS          147405408004BARRETTE MAINTIEN FAISCEAU              1474054080 D        -          OCM          
EXIS          147407808001SUPPORT FAISCEAU                        1474078080 B        -          OCM          
EXIS          147416708000FOURREAU FAISCEAU MOTEUR                1474167080 A        -          OCM          
EXIS          147416808000FOURREAU FAISCEAU MOTEUR                1474168080 A        -          OCM          
EXIS          147425608001FOURREAU FAISCEAU MOTEUR                1474256080 A        -          OCM          
EXIS          147463108002EMBASE 75V                              1474631080 B        -          OCM          
EXIS          147465708002PROFILE PROTECTEUR FAISCEAU             1474657080 B        -          OCM          
EXIS          147465808002COUVERCLE PROTECTEUR FAISCEAU           1474658080 B        -          OCM          
EXIS          147485608000PASSE-GAINE                             1474856080OR        -          OCM          
EXIS          147574108003PROTECTEUR FAISCEAU                     1475741080 D        -          OCM          
EXIS          147601208004SUPPORT BOITE FUSIBLE                   1476012080 D        -          OCM          
EXIS          147612308000PASSE-GAINE SURMOULE FAISCEAU           1476123080OR        -          OCM          
EXIS          147614508003FOURREAU SURMOULE FAISCEAU              1476145080 C        -          OCM          
EXIS          147617608001SUPPORT BOITE RELAIS                    1476176080 B        -          OCM          
EXIS          147628408001PROTECTEUR FAISCEAU                     1476284080 A        -          OCM          
EXIS          147636308000PROTECTEUR FAISCEAU                     1476363080OR        -          OCM          
EXIS          147636408000BARRETTE MAINTIEN FAISCEAU              1476364080OR        -          OCM          
EXIS          147636508000PROTECTEUR FAISCEAU                     1476365080OR        -          OCM          
EXIS          147664908002PROTECTEUR FAISCEAU                     1476649080 B        -          OCM          
EXIS          147707708005FAISCEAU ADAPTATION                     1477077080 E        -          OCM          
EXIS          147771108001FOURREAU FAISCEAU MOTEUR                1477711080 A        -          OCM          
EXIS          147795208000SURMOULAGE PASSE-GAINE                  1477952080OR        -          OCM          
EXIS          147806908000BAGUE FENDUE                            1478069080OR        -          OCM          
EXIS          147822008002BOITIER SERVITUDE                       1478220080 B        *          OCM          
EXIS          147822108003PLATINE BOITIER SERVITUDE               1478221080 C        *          OCM          
EXIS          147822308002ETIQUETTE BOITIER SERVITUDE             1478223080 B        -          OCM          
EXIS          147922908002COUVERCLE BOITIER SERVITUDE             1479229080 B        *          OCM          
EXIS          147926608000SUPPORT BOITIER SERVITUDE               1479266080OR        -          OCM          
EXIS          148027008000ETIQUETTE BOITIER SERVITUDE             1480270080OR        -          OCM          
EXIS          148081708001SUPPORT FAISCEAU                        1480817080 A        -          OCM          
EXIS          148176708000ETIQUETTE BOITIER SERVITUDE             1481767080OR        -          OCM          
EXIS          148176808002BOITE EQUIPEMENT ELECTRIQUE ASS         1481768080 H        -          OCM          
EXIS          148176908002BOITE EQUIPEMENT ELECTRIQUE ASS         1481768080 H        -          OCM          
EXIS          148177008002BOITE EQUIPEMENT ELECTRIQUE ASS         1481768080 H        -          OCM          
EXIS          148177108002BOITE EQUIPEMENT ELECTRIQUE ASS         1481768080 H        -          OCM          
EXIS          148177208002BOITE EQUIPEMENT ELECTRIQUE ASS         1481768080 H        -          OCM          
EXIS          148177308002BOITE EQUIPEMENT ELECTRIQUE ASS         1481768080 H        -          OCM          
EXIS          148177408002BOITE EQUIPEMENT ELECTRIQUE ASS         1481768080 H        -          OCM          
EXIS          148177508002BOITE EQUIPEMENT ELECTRIQUE ASS         1481768080 H        -          OCM          
EXIS          148177608004BOITE EQUIPEMENT ELECTRIQUE ASS         1481768080 H        -          OCM          
EXIS          148325408001ETIQUETTE BOITIER SERVITUDE             1483254080 A        -          OCM          
EXIS          148325508005BOITE EQUIPEMENT ELECTRIQUE ASS         1481768080 H        -          OCM          
EXIS          148325608002BOITE EQUIPEMENT ELECTRIQUE             1481768080 H        -          OCM          
EXIS          148512608003SUPPORT PORTE-FUSIBLE                   1485126080 C        F          OCM          
EXIS          148541708004GOUTTIERE FAISCEAU                      1485417080 D        F          OCM          
EXIS          148551208003FOURREAU FAISCEAU PORTE AV              1485512080 C        F          OCM          
EXIS          148610808005GOUTTIERE FAISCEAU HABITACLE            1486108080 F        F          OCM          
EXIS          148610808006GOUTTIERE FAISCEAU HABITACLE            1486108080 G        F          EC           
EXIS          148645008002CABLE POSITIF BATTERIE                  1486450080 B        -          OCM          
EXIS          148654808003OBTURATEUR BOITIER SERVITUDE            1486548080 C        F          OCM          
EXIS          148790608002FOURREAU FAISCEAU VOLET AR              1487906080 B        F          EC           
EXIS          148879308003SUPPORT FAISCEAU HABITACLE              1488793080 C        F          OCM          
EXIS          148892207701COMMUTATEUR PLAFONNIER                  1488922077 B        F          OCM          
EXIS          148892407703COMMUTATEUR SIGNAL DANGER               1488924077 C        F          OCM          
EXIS          148893007700COMMUTATEUR COUPURE ALARME VOLUMETRIQUE 1488924077OR        F          OCM          
EXIS          148940408001PASSE-GAINE CABLE BATTERIE              1489404080 A        -          OCM          
EXIS          149044008000RUPTEUR MISE MASSE                      1490440080OR        F          OCM          
EXIS          149087608000BOITE EQUIPEMENT ELECTRIQUE             1481768080 H        -          OCM          
EXIS          149091208000BOITE EQUIPEMENT ELECTRIQUE             1481768080 H        -          OCM          
EXIS          149111208002PROFILE PROTECTEUR FAISCEAU             1491112080 B        -          OCM          
EXIS          149357208000GAINE FAISCEAU                          1493572080OR        -          OCM          
EXIS          149357308000GAINE FAISCEAU                          1493573080OR        -          OCM          
EXIS          149500408000BOITIER SERVITUDE MOTEUR                1495004080OR        F          OCM          
EXIS          149511808003SUPPORT BOITE FUSIBLE                   1495118080 C        -          OCM          
EXIS          149511908004SUPPORT BOITE FUSIBLE                   1495119080 D        -          OCM          
EXIS          149518608004COMMANDE VITESSE ENS                    1495186080 D        Y          OCM          
EXIS          149518708004COMMANDE VITESSE ENS                    1495187080 D        Y          OCM          
EXIS          149566908001BOITE BOITIER COMMUTATION PROTECTION    1495669080 A        -          OCM          
EXIS          149573707701CONTACTEUR FERMETURE PORTE COULISSANTE  1488924077 E        F          OCM          
EXIS          149728508003COUVERCLE BOITIER SERVITUDE             1497285080 C        F          OCM          
EXIS          149728608006SUPPORT BOITIER SERVITUDE MOTEUR        1497286080 F        F          OCM          
EXIS          149728708001FERMETURE SUPPORT BOITIER SERVITUDE MOT 1497287080 A        F          OCM          
EXIS          149806608000COMBINE PLANCHE BORD                    1498066080OR        F          OCM          
EXIS          149807708000FIBRE OPTIQUE SYSTEME TELEMATIQUE       1498077080OR        -          OCM          
EXIS          7365041121**EMBOUT RETRACTILE ROUGE 11,8X8,4 L28    7365041121 B        -          OCM          
EXIS          7380325021**DESIGNATION ANNULEE                     7380325021 B        -          OCM          
EXIS          770010199801CONNECTEUR MODULAIRE 33V                7700101998 A        -          OCM          
EXIS          770329737002P-MODULE 1,5 SICMA2 ETRIER JOINT 33V    7703297370 B        -          OCM          
EXIS          7903006025**VIS CBLX RCN M6X100 L12 AC4 DACA CO     C130622---OR        -          OCM          
EXIS          790301002401VIS Q M6X100 L35 AC8 ZNIA3L CO          7903010024 B        -          OCM          
EXIS          7903017067**VIS KP CBLX MTEND 4,5 L15 AC ZNIDN3L    C161720---OR        -          OCM          
EXIS          7903017072**VIS CBLX MTEND 4,5 L40 AC Z15DFNR       C161720---OR        -          OCM          
EXIS          790302000404VIS H EMB TARAUC REUTILISATION INTERDITE7903020004 R        F          OCM          
EXIS          790304405101ECROU CAGE M6X100 AC05 ZNIDA3L E1,7 E2,57903044051 C        F          OCM          
EXIS          7903053028**RONDELLE PLATE 6 D12 E1,2 AC9H ZNIA3L   C225310---OR        -          OCM          
EXIS          7903056008**RONDELLE EVENTAIL DEX 6 AC Z10DFJR      C225610--- D        -          OCM          
EXIS          7903072170**RIVET AVEUG RO 5 L11 PLAS               C927264--- F        -          OCM          
EXIS          790307303400PASSE-GAINE 1T 6 D10 E2,0 CAOUT         7903073034OR        -          OCM          
EXIS          7903073044**PASSE-GAINE 1T 3 D17 E0,9 CAOUT         7903073044 A        -          OCM          
EXIS          790307304700PASSE-GAINE 1T 4 D25 E0,9 CAOUT         7903073047 A        -          OCM          
EXIS          7903073048**PASSE-GAINE 1T 7 D25 E0,8 CAOUT         7903073048 B        -          OCM          
EXIS          7903073049**PASSE-GAINE 2T 2,5 4 D25 E0,9 CAOUT     7903073049 A        -          OCM          
EXIS          7903073053**PASSE-GAINE 2T 3 5 D37 E0,9 CAOUT       7903073053 A        -          OCM          
EXIS          7903073075**PASSE-GAINE 2T 2,5 2,5 B40X25 E1,0 CAOUT7903073075 B        -          OCM          
EXIS          790307310100OBTURATEUR K PASSE-GAINE D14 E0,9 CAOUT 7903073101 A        -          OCM          
EXIS          790307315900PASSE-GAINE 1T 43 D50 E0,8 E1,2 CAOUT   7903073159OR        -          OCM          
EXIS          790307316000PASSE-GAINE 1T 18 D40 E1,5 CAOUT        7903073160 A        -          OCM          
EXIS          7903073181**PASSE-GAINE 1T 7 D32 E0,8 CAOUT         7903073181OR        -          OCM          
EXIS          790307716601AGR SUPP CONNECTEUR 10 TROU PLAS        7903077166 A        -          OCM          
EXIS          790307907501SUPP 2T 10 15 PIVOT PLAS                7903079075 A        -          OCM          
EXIS          7903085004**LANIERE L175 B3 PLAS                                        -          OCM          
EXIS          790308502301LANIERE AGR L187 B9 TROU PLAS           7903085023 A        -          OCM          
EXIS          790308504301LANIERE 1T 22 PLAS                      7903085043 B        F          OCM          
EXIS          7903085043**LANIERE K L100 B2 PLAS                                                 OCM          
EXIS          790308504401LANIERE 1T 50 PLAS                      7903085044 C        F          OCM          
EXIS          790308504501LANIERE K L275 B4 PLAS                  7903085045 A        F          OCM          
EXIS          790308504600LANIERE K L390 B7 PLAS                  7903085046 A        F          OCM          
EXIS          7903085046**LANIERE K L390 B7 PLAS                                                 OCM          
EXIS          7903088013**BUTEE RADIALE 22 H12 TROU T8 CAOUT      7903088013 D        -          OCM          
EXIS          790309700200P-CLIP PLAT 5 5V                        7903097002OR        -          OCM          
EXIS          7903097007**CLIP PLAT INDIVIDUEL 5                  7903097007OR        -          OCM          
EXIS          7903097008**COSSE COUPE-BAT 10 AC                   7903097008 H        -          OCM          
EXIS          7903097010**COSSE 4 PLAGE 8 PLATE                   7903097010 A        -          OCM          
EXIS          7903097013**COSSE 5 PLAGE 10 TRONQUEE PLATE         7903097013 B        -          OCM          
EXIS          7903097015**COSSE 6 PLAGE 15 PLATE                  7903097015 B        -          OCM          
EXIS          7903097017**COSSE 8 PLAGE 15 PLATE                  7903097017 B        -          OCM          
EXIS          7903097026**CLIP PLAT 6                             7903097026 A        -          OCM          
EXIS          7903097027**CLIP PLAT 6                             7903097027 A        -          OCM          
EXIS          7903097030**CLIP PLAT INDIVIDUEL 6                  7903097030 A        -          OCM          
EXIS          7903097032**CLIP PLAT 6 VERR                        7903097032 A        -          OCM          
EXIS          7903097033**CLIP PLAT 6 VERR                        7903097033 B        -          OCM          
EXIS          7903097034**CLIP DRAPEAU 6,35                       7903097034 A        -          OCM          
EXIS          7903097035**CLIP DRAPEAU 6,35                       7903097035 C        -          OCM          
EXIS          7903097051**CLIP DRAPEAU CIRCUIT IMPRIME            7903097051 A        -          OCM          
EXIS          7903097070**P-CLIP PLAT 6,3 2V                      7903097070 E        -          OCM          
EXIS          7903097077**P-CLIP PLAT 6,3 6V                      7903097077 D        -          OCM          
EXIS          7903097078**P-CLIP PLAT 6,3 6V                      7903097078 D        -          OCM          
EXIS          7903097079**P-CLIP PLAT 6,3 6V                      7903097079 C        -          OCM          
EXIS          7903097080**P-CLIP PLAT 6,3 6V                      7903097080 C        -          OCM          
EXIS          7903097081**P-CLIP PLAT 6,3 6V                      7903097081 B        -          OCM          
EXIS          7903097082**P-CLIP PLAT 6,3 6V                      7903097082 B        -          OCM          
EXIS          7903097083**P-LANG PLATE SECU 6,3 1V                7903097083 A        -          OCM          
EXIS          7903097084**P-LANG PLATE SECU 6,3 1V                7903097084 A        -          OCM          
EXIS          7903097085**P-LANG PLATE SECU 6,3 2V                7903097085 C        -          OCM          
EXIS          790309708600P-LANG PLATE SECU 6,3 2V                7903097086 B        -          OCM          
EXIS          7903097087**P-LANG PLATE SECU 6,3 2V                7903097087 B        -          OCM          
EXIS          7903097088**P-LANG PLATE SECU 6,3 2V                7903097088 B        -          OCM          
EXIS          7903097089**P-LANG PLATE SECU 6,3 3V                7903097089 E        -          OCM          
EXIS          7903097090**P-LANG PLATE SECU 6,3 3V                7903097089 E        -          OCM          
EXIS          7903097091**P-LANG PLATE SECU 6,3 3V                7903097089 E        -          OCM          
EXIS          7903097092**P-LANG PLATE SECU 6,3 6V                7903097092 A        -          OCM          
EXIS          7903097093**P-LANG PLATE SECU 6,3 6V                7903097092 A        -          OCM          
EXIS          7903097095**P-LANG PLATE SECU 6,3 6V                7903097092 A        -          OCM          
EXIS          7903097096**P-LANG PLATE SECU 6,3 6V                7903097092 A        -          OCM          
EXIS          7903097097**P-LANG PLATE SECU 6,3 6V                7903097092 A        -          OCM          
EXIS          7903097098**P-CLIP DRAPEAU CIRCUIT IMPRIME 6V       7903097098 E        -          OCM          
EXIS          7903097099**P-CLIP DRAPEAU CIRCUIT IMPRIME 6V       7903097098 E        -          OCM          
EXIS          7903097100**P-CLIP DRAPEAU CIRCUIT IMPRIME 8V                                      OCM          
EXIS          7903097107**P-CLIP PLAT 6,3 VOLANT RELAIS 5V        7903097107 C        -          OCM          
EXIS          790309710900P-CLIP PLAT 5 3V                        7903097109 B        -          OCM          
EXIS          7903097112**P-CLIP DRAPEAU CIRCUIT IMPRIME 8V                                      OCM          
EXIS          7903097128**DOUILLE 4                                                              OCM          
EXIS          7903097129**BROCHE 4                                                               OCM          
EXIS          7903097131**CLIP PLAT INDIVIDUEL 6                  7903097131OR        -          OCM          
EXIS          7903097134**CLIP J-TIMER 2,8                        7903097134 B        -          OCM          
EXIS          7903097146**P-CLIP PLAT 6,3 1V                      7903097146OR        -          OCM          
EXIS          7903097147**P-CLIP PLAT 6,3 1V                      7903097147OR        -          OCM          
EXIS          7903097148**P-CLIP PLAT 6,3 1V                      7903097148OR        -          OCM          
EXIS          7903097149**P-LANG PLATE SECU 6,3 1V                7903097149OR        -          OCM          
EXIS          7903097151**P-LANG PLATE SECU 6,3 1V                7903097151OR        -          OCM          
EXIS          7903097152**CLIP PLAT 5                             7903097152 A        -          OCM          
EXIS          7903097154**P-CLIP PLAT 6,3 1V                      7903097154OR        -          OCM          
EXIS          790309715500P-CLIP PLAT 5 5V                        7903097155OR        -          OCM          
EXIS          7903097156**CLIP PLAT 6                             7903097156 A        -          OCM          
EXIS          7903097165**P-CLIP PLAT 5 INTER BASCULANT 8V        7903097165OR        -          OCM          
EXIS          7903097173**P-LANG PLATE SECU 6,3 4V                7903097173OR        -          OCM          
EXIS          7903097174**P-LANG PLATE SECU 6,3 4V                7903097174OR        -          OCM          
EXIS          7903097175**P-LANG PLATE SECU 6,3 4V                7903097175OR        -          OCM          
EXIS          7903097176**P-CLIP PLAT 6,3 4V                      7903097176OR        -          OCM          
EXIS          7903097177**P-CLIP PLAT 6,3 4V                      7903097177OR        -          OCM          
EXIS          7903097178**P-CLIP PLAT 6,3 4V                      7903097178OR        -          OCM          
EXIS          7903097181**PROTECTEUR ANNULE                       7903097181 C        -          OCM          
EXIS          7903097184**PROTECTEUR ANNULE                       7903097184 A        -          OCM          
EXIS          7903097187**CLIP DRAPEAU CIRCUIT IMPRIME            7903097187 B        -          OCM          
EXIS          7903097190**P-CLIP PLAT 5 INTER POUSSOIR 9V         7903097190 A        -          OCM          
EXIS          7903097191**P-CLIP PLAT 5 INTER POUSSOIR 9V         7903097190 A        -          OCM          
EXIS          7903097192**P-CLIP PLAT 5 INTER POUSSOIR 9V         7903097190 A        -          OCM          
EXIS          7903097193**P-CLIP PLAT 5 INTER POUSSOIR 9V         7903097190 A        -          OCM          
EXIS          7903097194**P-CLIP DRAPEAU CIRCUIT IMPRIME 9V       7903097194OR        -          OCM          
EXIS          7903097195**P-CLIP DRAPEAU CIRCUIT IMPRIME 9V       7903097194OR        -          OCM          
EXIS          7903097196**P-CLIP J-TIMER AXIAL 2V                 7903097301 C        -          OCM          
EXIS          7903097197**P-CLIP J-TIMER AXIAL 2V                 7903097301 C        -          OCM          
EXIS          7903097198**P-CLIP J-TIMER AXIAL 2V                 7903097301 C        -          OCM          
EXIS          7903097202**COSSE 4 PLAGE 8,5 PLATE                 7903097202 A        -          OCM          
EXIS          7903097206**COSSE 6 PLAGE 10,5 PLATE                7903097206 A        -          OCM          
EXIS          7903097208**P-LANG PLATE SECU 6,3 3V                7903097089 E        -          OCM          
EXIS          7903097210**P-CLIP DRAPEAU CIRCUIT IMPRIME 7V       7903097210OR        -          OCM          
EXIS          7903097211**P-CLIP PLAT 6,3 LAT RELAIS 5V           7903097211 A        -          OCM          
EXIS          7903097212**LANG PLATE INDIVIDUELLE 5               7903097212 B        -          OCM          
EXIS          7903097223**BROCHE 4                                7903097223 A        -          OCM          
EXIS          7903097224**DOUILLE 4                               7903097224 A        -          OCM          
EXIS          7903097226**LANG PLATE 5 SPECIALE                   7903097226 A        -          OCM          
EXIS          7903097234**P-CLIP PLAT 6,3 SPECIAL 6V              7903097234 A        -          OCM          
EXIS          7903097235**CLIP PLAT 6 SPECIAL                                                    OCM          
EXIS          7903097236**CLIP PLAT 6 SPECIAL                     7903097236 B        -          OCM          
EXIS          7903097274**COSSE BAT 8 LAITON PLAGE 18             7903097274 A        -          OCM          
EXIS          7903097277**P-CLIP DRAPEAU CIRCUIT IMPRIME 10V      7903097277OR        -          OCM          
EXIS          7903097290**P-CLIP J-TIMER AXIAL 3V                 7903097290 A        N          OCM          
EXIS          7903097294**P-CLIP DRAPEAU 8 3V                     7903097294OR        -          OCM          
EXIS          7903097295**P-CLIP PLAT 6,3 SPECIAL 2V              7903097295OR        -          OCM          
EXIS          7903097296**P-CLIP PLAT 6,3 SPECIAL 6V              7903097078 D        -          OCM          
EXIS          7903097297**P-CLIP PLAT 6,3 SPECIAL 8V              7903097297OR        -          OCM          
EXIS          7903097301**P-CLIP J-TIMER AXIAL 2V                 7903097301 C        -          OCM          
EXIS          7903097302**COSSE BAT 8 AC PLAGE 17 A100            7903097302OR        -          OCM          
EXIS          7903097304**P-CLIP J-TIMER AXIAL 7V                 7903097304OR        -          OCM          
EXIS          7903097324**PROTECTEUR ANNULE                       7903097181 C        -          OCM          
EXIS          7903097331**P-CLIP PLAT MT5 CARTE OREILLE 6V        7903097331 A        -          OCM          
EXIS          7903097347**P-CLIP PLAT SECU 9,5 2V                 7903097347OR        -          OCM          
EXIS          7903097348**CLIP PLAT SECU 9,5                      7903097348OR        -          OCM          
EXIS          7903097351**P-CLIP PLAT MT5 CARTE OREILLE 9V        7903097351 A        -          OCM          
EXIS          7903097356**P-CLIP PLAT 6,3 SPECIAL 6V              7903097356 A        -          OCM          
EXIS          7903097358**CLIP PLAT 6 SPECIAL                     7903097358OR        -          OCM          
EXIS          7903097363**CLIP PLAT 6                             7903097363OR        -          OCM          
EXIS          7903097364**CLIP PLAT 6 VERR                        7903097364OR        -          OCM          
EXIS          7903097365**CLIP PLAT 6                             7903097365OR        -          OCM          
EXIS          7903097366**CLIP PLAT 6 VERR                        7903097366OR        -          OCM          
EXIS          7903097370**P-LANG PLATE SECU 6,3 3V                7903097089 E        -          OCM          
EXIS          7903097371**P-CLIP DRAPEAU CIRCUIT IMPRIME 8V                                      OCM          
EXIS          7903097372**P-LANG PLATE SECU 6,3 2V                7903097085 C        -          OCM          
EXIS          7903097374**P-CLIP PLAT 6,3 6V                      7903097077 D        -          OCM          
EXIS          7903097375**P-CLIP PLAT 6,3 2V                      7903097070 E        -          OCM          
EXIS          7903097376**P-CLIP DRAPEAU CIRCUIT IMPRIME 6V       7903097098 E        -          OCM          
EXIS          7903097377**P-CLIP DRAPEAU CIRCUIT IMPRIME 6V       7903097098 E        -          OCM          
EXIS          7903097386**PROTECTEUR ANNULE                       7903097181 C        -          OCM          
EXIS          7903097387**PROTECTEUR ANNULE                       7903097181 C        -          OCM          
EXIS          7903097388**DESIGNATION ANNULEE                     7903097388OR        -          OCM          
EXIS          7903097394**P-CLIP PLAT SECU 6,3 SPECIAL 3V         7903097394 A        -          OCM          
EXIS          7903097395**P-CLIP DRAPEAU CIRCUIT IMPRIME 4V       7903097395OR        -          OCM          
EXIS          7903097398**DESIGNATION ANNULEE                     7903097398OR        -          OCM          
EXIS          7903097399**P-CLIP PLAT SECU 6,3 4V                 7903097399OR        -          OCM          
EXIS          790309742701CLIP PLAT INDIVIDUEL 6                  7903097427 A        -          OCM          
EXIS          7903097434**LANG PLATE INDIVIDUELLE 6,35            7903097434 A        -          OCM          
EXIS          790309744600P-CLIP CARRE 0,635 24V                  7903097446OR        -          OCM          
EXIS          790309744700P-CLIP CARRE 0,635 20V                  7903097447OR        -          OCM          
EXIS          790309744800P-CLIP CARRE 0,635 12V                  7903097448OR        -          OCM          
EXIS          790309744900P-CLIP CARRE 0,635 14V                  7903097449OR        -          OCM          
EXIS          790309745000CLIP CARRE 0,635                        7903097450OR        -          OCM          
EXIS          7903097451**P-CLIP J-TIMER AXIAL 5V                 7903097451 A        -          OCM          
EXIS          7903097456**P-CLIP J-TIMER SPECIAL 3V               7903097456OR        -          OCM          
EXIS          7903097506**P-CLIP PLAT MT5 CARTE OREILLE 6V                                       OCM          
EXIS          7903097507**P-CLIP PLAT MT5 CARTE OREILLE 3V                                       OCM          
EXIS          7903097508**P-CLIP PLAT MT5 CARTE OREILLE 6V                                       OCM          
EXIS          7903097509**P-CLIP J-TIMER AXIAL 15V                7903097509OR        -          OCM          
EXIS          7903097510**P-CLIP J-TIMER AXIAL 15V                7903097510OR        -          OCM          
EXIS          7903097514**P-CLIP CARRE 0,635 8V                   7903097514OR        -          OCM          
EXIS          7903097515**CLIP J-TIMER 2,8                        7903097515OR        -          OCM          
EXIS          7903097522**P-CLIP J-TIMER AXIAL 2V                 7903097301 C        -          OCM          
EXIS          7903097523**CLIP DRAPEAU SECU 6,35                  7903097523OR        -          OCM          
EXIS          7903097524**P-CLIP DRAPEAU SECU 6,3 1V              7903097525OR        -          OCM          
EXIS          7903097525**P-CLIP DRAPEAU SECU 6,3 1V              7903097525OR        -          OCM          
EXIS          7903097526**P-CLIP DRAPEAU SECU 6,3 1V              7903097525OR        -          OCM          
EXIS          7903097527**P-CLIP DRAPEAU SECU 6,3 1V              7903097525OR        -          OCM          
EXIS          7903097528**P-CLIP DRAPEAU SECU 6,3 1V              7903097525OR        -          OCM          
EXIS          7903097529**P-CLIP DRAPEAU SECU 6,3 1V              7903097525OR        -          OCM          
EXIS          7903097531++CLIP PLAT SECU 6                        7903097531 A        -          EC           
EXIS          790309753200P-LANG PLATE SECU 5 1V                  7903097532 A        -          OCM          
EXIS          7903097533**P-LANG PLATE SECU 5 1V                  7903097532 A        -          OCM          
EXIS          790309753400P-LANG PLATE SECU 5 1V                  7903097532 A        -          OCM          
EXIS          790309753500P-LANG PLATE SECU 5 1V                  7903097532 A        -          OCM          
EXIS          790309753600P-LANG PLATE SECU 5 1V                  7903097532 A        -          OCM          
EXIS          790309753700P-LANG PLATE SECU 5 1V                  7903097532 A        -          OCM          
EXIS          790309753800P-LANG PLATE SECU 5 1V                  7903097532 A        -          OCM          
EXIS          790309753900P-LANG PLATE SECU 5 1V                  7903097532 A        -          OCM          
EXIS          7903097540**COSSE 6 PLAGE 14 PLATE                  7903097540 B        -          OCM          
EXIS          7903097541**COSSE 8 PLAGE 14 PLATE                  7903097541 A        -          OCM          
EXIS          7903097545**P-CLIP PLAT MT5 CARTE OREILLE 10V       7903097545 C        -          OCM          
EXIS          7903097546**P-CLIP PLAT MT5 CARTE OREILLE 9V        7903097546 A        -          OCM          
EXIS          7903097547**P-CLIP PLAT MT5 LANG 10V                7903097547 A        -          OCM          
EXIS          7903097548**P-CLIP PLAT MT5 LANG 5V                 7903097548OR        -          OCM          
EXIS          7903097549**P-CLIP PLAT MT5 LANG 2V                 7903097549OR        -          OCM          
EXIS          7903097550**P-CLIP PLAT MT5 LANG 9V                 7903097550OR        -          OCM          
EXIS          7903097556**P-CLIP PLAT MT5 LANG 4V                 7903097556OR        -          OCM          
EXIS          7903097557**P-CLIP PLAT MT5 LANG 4V                 7903097557OR        -          OCM          
EXIS          7903097558**P-CLIP PLAT MT5 LANG 6V                 7903097558OR        -          OCM          
EXIS          7903097559**P-CLIP PLAT MT5 LANG 9V                 7903097559OR        -          OCM          
EXIS          7903097561**CLIP PLAT INDIVIDUEL 9,5                7903097561OR        -          OCM          
EXIS          7903097562**P-CLIP PLAT MT5 LANG 9V                 7903097562OR        -          OCM          
EXIS          7903097563**P-CLIP PLAT MT5 CARTE OREILLE 4V        7903097563OR        -          OCM          
EXIS          790309799801CLIP PLAT SECU 6                        7903097998OR        -          OCM          
EXIS          7903232004**ECROU H M6X100 AC8 ZNIA3L               C213212--- A        -          OCM          
EXIS          7903233041**ECROU KM H EMB M5X080 AC8 ZNIA3L        C213310---OR        -          OCM          
EXIS          7903233042**ECROU KP H EMB M6X100 AC8 ZNIA3L        C213310---OR        -          OCM          
EXIS          7903234002**ECROU K H FREIN NM M6X100 AC8 ZNIA3L    C213412---OR        -          OCM          
EXIS          7903234004**ECROU H FREIN M10X150 AC8 ZNIA3L        C213412---OR        -          OCM          
EXIS          790323409202ECROU HM FREIN M6X100 AC06 ZNIA3L       7903234092 B        F          EC           
EXIS          790323409302ECROU HM FREIN NM M8X125 AC06 ZNIA3L    7903234093 B        F          OCM          
EXIS          790502698300BAGUE 0 21                              7905026983OR        -          OCM          
EXIS          790552100501FUSIBLE PLAT 3A                         7905521095 B        F          OCM          
EXIS          790552101502FUSIBLE PLAT 5A                         7905521095 B        F          OCM          
SUPP          7905521015**FUSIBLE PLAT 5A                                             -          OCM          
EXIS          790552102501FUSIBLE PLAT 7,5A                       7905521095 B        F          OCM          
EXIS          790552103502FUSIBLE PLAT 10A                        7905521095 B        F          OCM          
SUPP          7905521035**FUSIBLE PLAT 10A                                            -          OCM          
EXIS          790552104502FUSIBLE PLAT 15A                        7905521095 B        F          OCM          
EXIS          790552105502FUSIBLE PLAT 20A                        7905521095 B        F          OCM          
SUPP          7905521055**FUSIBLE PLAT 20A                                            -          OCM          
EXIS          790552106502FUSIBLE PLAT 25A                        7905521095 B        F          OCM          
SUPP          7905521065**FUSIBLE PLAT 25A                                            -          OCM          
EXIS          790552107501FUSIBLE PLAT 30A                        7905521095 B        F          OCM          
EXIS          7905521075**FUSIBLE PLAT 30A                                                       OCM          
EXIS          790552108502FUSIBLE PLAT 2A                         7905521095 B        F          OCM          
EXIS          790552109502FUSIBLE PLAT 4A                         7905521095 B        F          OCM          
EXIS          790552220000RELAIS INVERSEUR                        9750410480 A        F          OCM          
EXIS          790552221000RELAIS CONTACTEUR                       9750410480 A        F          OCM          
SUPP          790552221001RELAIS CONTACTEUR                                           *          OCM          
EXIS          790552222000RELAIS INVERSEUR                        9750410480 A        F          OCM          
SUPP          790552222001RELAIS INVERSEUR                                            F          OCM          
EXIS          790552223000RELAIS                                  9750410480 A        F          OCM          
EXIS          790552224000RELAIS                                  9750410480 A        F          OCM          
EXIS          7905525009**COSSE BAT 8 AC PLAGE 19,2               7905525009OR        -          OCM          
EXIS          7905525019**COSSE COUPE-BAT 10 LAITON               7905525019OR        -          OCM          
EXIS          790552520906BATTERIE DEMAR VRLA PB 12V L2 640A 55AH 7905525080 W        F          OCM          
EXIS          790552530705BATTERIE DEMAR VRLA PB 12V L3 760A 70AH 7905525307 B        F          OCM          
EXIS          790552554724BATTERIE DEMAR PB 12V L1 480A 50AH      7905525547 F        F          OCM          
EXIS          790552555723BATTERIE DEMAR PB 12V L2 640A 60AH      7905525557 G        F          OCM          
EXIS          790552556721BATTERIE DEMAR PB 12V L3 720A 70AH      7905525567 F        F          OCM          
EXIS          790552574715BATTERIE DEMAR PB 12V L0 300A 35AH      7905525080 W        F          OCM          
SUPP          790552574716BATTERIE DEMAR PB 12V L0 300A 35AH                          F          OCM          
EXIS          790552575714BATTERIE DEMAR PB 12V L0 390A 42AH      7905525757OR        F          OCM          
SUPP          790552575715BATTERIE DEMAR PB 12V L0 390A 42AH                          F          OCM          
EXIS          790552576712BATTERIE DEMAR PB 12V L5 950A 95AH DN   7905525080 W        F          OCM          
EXIS          790552577713BATTERIE DEMAR PB 12V L3 800A 75AH      7905525777 D        F          OCM          
EXIS          790552578706BATTERIE DEMAR PB 12V L5 950A 95AH DP   7905525787OR        F          OCM          
EXIS          790552579702BATTERIE DEMAR PB 12V L2 640A 64AH      7905525080 W        F          OCM          
EXIS          7910005249**RACCORD PRISE DEPRESSION                7910013288AB        -          OCM          
EXIS          792000025100EMBOUT RETRACTILE ROSE N 21 10,5X7,7 L287920000251 B        -          OCM          
EXIS          7920004474**DESIGNATION ANNULEE                     7920004474OR        -          OCM          
EXIS          792002687903RACCORD 2V 4 4 PLAS                                         -          OCM          
SUPP          792002687904RACCORD 2V 4 4 PLAS                                         -          OCM          
SUPP          7920026879**RACCORD 2V 4 4 PLAS                                         -          OCM          
EXIS          792003745403DIODE                                   7920037454 C        -          OCM          
EXIS          792003816944TUYAU LAVE-VITRE                        7920014489AY        -          OCM          
EXIS          792004641701CABLE ANTENNE RADIO                     9600829980 H        F          OCM          
EXIS          792004805038TUYAU LAVE-VITRE                        7920014489BR        -          OCM          
EXIS          792006629002FOURREAU FAISCEAU PORTE                 7920066290 B        -          OCM          
EXIS          7920067453**RESISTANCE                              7920067453 M        -          OCM          
EXIS          7920069038**RESISTANCE                              7920067453 M        -          OCM          
EXIS          7920070034**FOURREAU FAISCEAU PORTE AR              7920070034OR        -          OCM          
EXIS          7920073991**RESISTANCE                              7920067453 M        -          OCM          
EXIS          7920074281**BORNE RELAIS                            7920074281 A        -          OCM          
EXIS          7920076686**DESIGNATION ANNULEE                     7920076686OR        -          OCM          
EXIS          792007756407RESISTANCE                              7920067453 M        -          OCM          
EXIS          7920079279**RESISTANCE 16 OHMS                      7920067453 M        -          OCM          
EXIS          915144988000CAPUCHON                                9151449880OR        -          OCM          
EXIS          915953208000SUPP VAR 2T 22 50 PIVOT PLAS            9159532080OR        -          OCM          
EXIS          922340078000P-LANG PLATE SECU 6 SPECIALE 6V         9223400680OR        -          OCM          
EXIS          922340088000P-LANG PLATE SECU 6 SPECIALE 8V         9223400680OR        -          OCM          
EXIS          925054178000CAPUCHON P-CLIP J-TIMER AXIAL 3V        9250541780 B        -          OCM          
EXIS          925192908000CAPUCHON P-CLIP J-TIMER AXIAL 7V        9251929080 A        -          OCM          
EXIS          925204408001MOUSSE ADHESIVE 40 L100 E5              7920077341BA        -          OCM          
EXIS          925206328000RESISTANCE                              7920067453 M        -          OCM          
EXIS          925216468002CAPUCHON                                9252164680 B        -          OCM          
EXIS          925250068000PASSE-GAINE                             9252500680 B        N          OCM          
EXIS          925250228000P-CLIP JP-TIMER AXIAL 15V               9252502280OR        -          OCM          
EXIS          925250508001P-CLIP PLAT MT5 LANG 5V                 9252505080 A        -          OCM          
EXIS          925258418000CAPUCHON P-CLIP J-TIMER AXIAL 5V        9252584180OR        -          OCM          
EXIS          925258598000CAPUCHON P-CLIP J-TIMER AXIAL 2V        9252585980OR        -          OCM          
EXIS          925288468005CAPUCHON                                9252884680 E        -          OCM          
EXIS          925314198000RESISTANCE 5600 OHM                     7920067453 M        -          OCM          
EXIS          925324708000RESISTANCE 100 OHM                      7920067453 M        -          OCM          
EXIS          925332368000RESISTANCE 10000 OHMS                   7920067453 M        -          OCM          
EXIS          925379838000RELAIS CONTACTEUR 25A                   9750410480 A        F          OCM          
EXIS          925500348001P-CLIP PLAT 6,3 SPECIAL 4V              9255003480 A        N          OCM          
EXIS          925500728001P-CLIP PLAT MT5 LANG 6V                 9255007280 A        N          OCM          
EXIS          925500738001P-LANG PLATE SECU TRIPLE 8              9255007380 A        N          OCM          
EXIS          925500748001P-CLIP PLAT MT5 CARTE OREILLE 11V       9255007480 A        N          OCM          
EXIS          925500778001P-CLIP PLAT MT5 CARTE 4V                9255007780 A        N          OCM          
EXIS          925500788001P-CLIP PLAT MT5 CARTE 3V                9255007880 A        N          OCM          
EXIS          925500808001P-CLIP PLAT MT5 CARTE 3V                9255008080 A        N          OCM          
EXIS          925500818001P-CLIP PLAT MT5 CARTE 2V                9255008180 A        N          OCM          
EXIS          925500838001P-CLIP PLAT MT5 CARTE OREILLE 7V        9255008380 A        N          OCM          
EXIS          925500918002LANG PLATE SECU TRIPLE 8                9255009180 B        N          OCM          
EXIS          925500928001P-CLIP PLAT MT5 CARTE OREILLE 8V        9255009280 A        N          OCM          
EXIS          925500938000LANG PLATE MIC 1                        9255009380OR        N          OCM          
EXIS          925500948000LANG PLATE MIC 1                        9255009480OR        N          OCM          
EXIS          925500958000CLIP PLAT MIC 1                         9255009580OR        N          OCM          
EXIS          925500968001CLIP PLAT MIC 1                         9255009680 A        N          OCM          
EXIS          925500978000P-LANG PLATE MIC 1 13V                  9255009780OR        N          OCM          
EXIS          925500988001P-CLIP PLAT MIC 1 13V                   9255009880 A        N          OCM          
EXIS          925500998001P-CLIP PLAT MIC 1 9V                    9617328480OR        N          OCM          
EXIS          925501008000P-LANG PLATE MIC 1 9V                   9255010080OR        N          OCM          
EXIS          925501018001P-CLIP PLAT 6,3 SPECIAL 6V              9255010180 A        N          OCM          
EXIS          925501048002CLIP PLAT SECU 6 SPECIAL                9255010480 B        N          OCM          
EXIS          925501068000P-CLIP PLAT SECU 6,3 SPECIAL 2V         9255010680OR        N          OCM          
EXIS          925501078000P-CLIP PLAT SECU 6,3 SPECIAL 1V         9255010780OR        N          OCM          
EXIS          925501108000P-CLIP J-TIMER SPECIAL 22V              9255011080OR        N          OCM          
EXIS          925501128003COSSE COUPE-BAT 10 LAITON               9255011280 C        N          OCM          
EXIS          925501138004P-CLIP PLAT SECU 6,3 RELAIS 5V          9255011380 E        N          OCM          
EXIS          925501148000P-CLIP J-TIMER AXIAL 6V                 9255011480OR        N          OCM          
EXIS          925501168001LANG PLATE SECU 8                       9255011680 A        N          OCM          
EXIS          925501218002COSSE BAT 8 LAITON PLAGE 18 E2          9255012180 B        N          OCM          
EXIS          925501268002LANG PLATE SECU 8                       9255012680 B        N          OCM          
EXIS          925501318001P-CLIP PLAT MIC 1 9V                    9617328480OR        N          OCM          
EXIS          925501328001P-CLIP MTIS VERR 15V                    9603340280 B        N          OCM          
EXIS          925501368000P-CLIP PLAT SECU 6,3 SPECIAL 1V         9255013680 B        N          OCM          
EXIS          925501428000P-CLIP PLAT SECU 6,3 SPECIAL 1V         9255014280OR        N          OCM          
EXIS          925501438000P-CLIP PLAT SECU 6,3 SPECIAL 1V         9255014380OR        N          OCM          
EXIS          925501448000P-CLIP PLAT SECU 6,3 SPECIAL 1V         9255014480OR        N          OCM          
EXIS          925501458000P-CLIP PLAT SECU 6,3 SPECIAL 1V         9255014580OR        N          OCM          
EXIS          925501468000P-CLIP PLAT SECU 6,3 SPECIAL 1V         9255014680OR        N          OCM          
EXIS          925501478000P-CLIP PLAT SECU 6,3 SPECIAL 1V         9255014780OR        N          OCM          
EXIS          925501488000P-CLIP PLAT SECU 6,3 SPECIAL 1V         9255014880OR        N          OCM          
EXIS          925501498000P-CLIP PLAT SECU 6,3 SPECIAL 1V         9255014980OR        N          OCM          
EXIS          925501608004CLIP DRAPEAU 8 ULTRASON                 9255016080 D        N          OCM          
EXIS          925501618002P-CLIP DRAPEAU 8 GMV 2V                 9255016180 B        N          OCM          
EXIS          925501638000AGRAFE SUPP CONNECTEUR BOUT PLAS        9255016380OR        -          OCM          
EXIS          925501658000P-CLIP PLAT MT5 CARTE 7V                9255016580OR        N          OCM          
EXIS          925501668000P-CLIP PLAT MT5 CARTE 5V                9255016680OR        N          OCM          
EXIS          925501728001PASSE-GAINE 1T 15 D25 E0,8 E2,0 CAOUT   9255017280 B        -          OCM          
EXIS          9255017280**OBTURATEUR 25 E0,8 E2,0 CAOUT                               -          OCM          
EXIS          925501888000CLIP ANNULE                             9255018880OR        N          OCM          
EXIS          925501978000P-CLIP PLAT MIC 1 20V                   9255019780OR        N          OCM          
EXIS          925501988000P-CLIP PLAT MIC 1 20V                   9255019780OR        N          OCM          
EXIS          925501998000P-LANG PLATE MIC 1 20V                  9255019980OR        N          OCM          
EXIS          925502008000P-LANG PLATE MIC 1 20V                  9255019980OR        N          OCM          
EXIS          925502088003P-CLIP PLAT MINI MT5 CARTE OREILLE 7V   9602985980 B        N          OCM          
EXIS          925502098003P-CLIP PLAT MINI MT5 CARTE OREILLE 8V   9602985980 B        N          OCM          
EXIS          925502108003P-CLIP PLAT MINI MT5 CARTE OREILLE 9V   9602985980 B        N          OCM          
EXIS          925502118003P-CLIP PLAT MINI MT5 CARTE OREILLE 10V  9602985980 B        N          OCM          
EXIS          925502128003P-CLIP PLAT MINI MT5 CARTE OREILLE 11V  9602985980 B        N          OCM          
EXIS          925502138003P-CLIP PLAT MINI MT5 CARTE OREILLE 3V   9602985980 B        N          OCM          
EXIS          925502148003P-CLIP PLAT MINI MT5 CARTE OREILLE 4V   9602985980 B        N          OCM          
EXIS          925502158004P-CLIP PLAT MINI MT5 CARTE LANG 5V      9602986080 D        N          OCM          
EXIS          925502168000P-CLIP PLAT MIC 1 13V                   9255009880 A        -          OCM          
EXIS          925502178000P-CLIP PLAT MIC 1 13V                   9255009880 A        -          OCM          
EXIS          925502188000P-CLIP PLAT MIC 1 13V                   9255009880 A        -          OCM          
EXIS          925502198000P-CLIP PLAT MIC 1 13V                   9255009880 A        -          OCM          
EXIS          925502208000P-CLIP PLAT MIC 1 13V                   9255009880 A        -          OCM          
EXIS          925502218000P-CLIP PLAT MIC 1 11V                   9255022180OR        N          OCM          
EXIS          925502338006COSSE BAT 8 LAITON PLAGE 18 E2 A90      9255023380 H        -          OCM          
EXIS          925502518000LANG PLATE SECU 8                       9255025180OR        N          OCM          
EXIS          925502548000P-CLIP PLAT MT5 LANG 3V                 9255025480OR        N          OCM          
EXIS          925502558000P-CLIP PLAT MT5 LANG 4V                 9255025580OR        N          OCM          
EXIS          925502568000CLIP PLAT 5                             9255025680OR        N          OCM          
EXIS          925502578002CLIP PLAT INDIVIDUEL 5                  9255025780 B        -          OCM          
EXIS          925502588000LANG PLATE 5 SPECIALE                   9255025880OR        N          OCM          
EXIS          925502748000P-CLIP PLAT MT5 LANG 3V                 9255027480OR        N          OCM          
EXIS          925502758000P-CLIP PLAT MT5 LANG 2V                 9255027580OR        N          OCM          
EXIS          925502788000CAPUCHON P-CLIP J-TIMER AXIAL 6V        9255027880OR        N          OCM          
EXIS          925502798000P-CLIP PLAT MT5 LANG 3V                 9255027980OR        N          OCM          
EXIS          925502808000P-CLIP PLAT MT5 LANG 5V                 9255028080OR        N          OCM          
EXIS          925502918002CLIP PLAT INDIVIDUEL 6                  9255029180 B        -          OCM          
EXIS          925502928000P-CLIP PLAT MT5 LANG 4V                 9255029280OR        N          OCM          
EXIS          925502938000P-CLIP PLAT MT5 LANG 2V                 9255029380OR        N          OCM          
EXIS          925503138001AGR SUPP ENRUB VAR 1T 15 TROU PLAS      9255031380 A        N          OCM          
EXIS          925523588000CLIP PLAT FUSIBLE 5                     9255235880OR        -          OCM          
EXIS          925523598000CLIP PLAT FUSIBLE 5                     9255235980OR        -          OCM          
EXIS          925523608002P-CLIP PLAT FUSIBLE 5 2V                9255236080 B        -          OCM          
EXIS          925526758000P-CLIP PLAT MT5 LANG 10V                9255267580OR        N          OCM          
EXIS          925526768000P-CLIP PLAT MT5 LANG 6V                 9255267680OR        N          OCM          
EXIS          925528138001P-CLIP PLAT MT5 CARTE 6V                9255281380 A        N          OCM          
EXIS          925549908001PROTECTEUR CONNEXION                    9255499080 A        -          OCM          
EXIS          925572978000P-LANG PLATE SECU 6 SPECIALE 2V         9255729780OR        -          OCM          
EXIS          925588618000RESISTANCE                              7920067453 N        -          OCM          
EXIS          9256165980**AGR SUPP                                9256165980 A        -          OCM          
EXIS          925624488001PASSE-GAINE ANNULE                      9256244880 A        N          OCM          
EXIS          925624508000BAGUE PASSE GAINE                       9256245080OR        -          OCM          
EXIS          925625478005BORNE RELAIS                            9256254780 E        -          OCM          
EXIS          954990378000P-CLIP PLAT MT5 LANG 7V                 9549903780 A        N          OCM          
EXIS          955444878002CLIP PLAT SECU 6                        9601270080 D        -          OCM          
EXIS          955555358000CAPUCHON P-CLIP PLAT SECU 5 3V          9555553580OR        -          OCM          
EXIS          955588388000LANG PLATE 6,35                         9555883880OR        -          OCM          
EXIS          955588418000P-LANG PLATE 6,3 1V                     9555884180OR        -          OCM          
EXIS          955588428000P-LANG PLATE 6,3 1V                     9555884280OR        -          OCM          
EXIS          955588438000P-LANG PLATE 6,3 1V                     9555884380OR        -          OCM          
EXIS          955592288000P-LANG PLATE 6,3 1V                     9555922880OR        -          OCM          
EXIS          955592298000P-LANG PLATE 6,3 1V                     9555922980OR        -          OCM          
EXIS          955592308000P-LANG PLATE 6,3 1V                     9555923080OR        -          OCM          
EXIS          955592318000P-LANG PLATE 6,3 1V                     9555923180OR        -          OCM          
EXIS          955592328000P-LANG PLATE 6,3 1V                     9555923280OR        -          OCM          
EXIS          955592338000P-LANG PLATE 6,3 1V                     9555923380OR        -          OCM          
EXIS          955724698000PROTECTEUR                              9557246980OR        -          OCM          
EXIS          955796818000P-CLIP PLAT MT5 LANG 3V                 9557968180OR        -          OCM          
EXIS          955798158000P-CLIP PLAT MT5 LANG 2V                 9557981580OR        -          OCM          
EXIS          955798178000P-CLIP PLAT MT5 LANG 3V                 9557981780OR        -          OCM          
EXIS          955800408002PASSE-GAINE 5 D35 E1,5 CAOUT            9558004080 B        -          OCM          
EXIS          956027118001PROTECTEUR BORNE ALTERNATEUR            9560271180OR        -          OCM          
EXIS          956126668001AGR ANNULEE                             9561266680 A        -          OCM          
EXIS          956127898001CAPUCHON P-CLIP J-TIMER AXIAL 15V       9561278980 A        -          OCM          
EXIS          956319978002AGR MAINT BRIDE 1T 7 TROU PLAS          9563199780 B        N          OCM          
EXIS          956353398001CENTRALE CLIGNOTANTE                    9563533980 D        F          OCM          
EXIS          956361768001PINCE FUSIBLE                           9563617680 A        -          OCM          
EXIS          956377268003DOUILLE 4 DOUBLE                        9563772680 D        -          OCM          
EXIS          956380058000LANGUETTE                               9563800580OR        -          OCM          
EXIS          960005028000P-CLIP PLAT MT5 LANG 8V                 9600050280OR        -          OCM          
EXIS          960008478003P-CLIP PLAT SECU 6,3 RELAIS 5V          9255011380 E        N          OCM          
EXIS          960008488003P-CLIP PLAT SECU 6,3 RELAIS 5V          9255011380 E        N          OCM          
EXIS          960008498003P-CLIP PLAT SECU 6,3 RELAIS 5V          9255011380 E        N          OCM          
EXIS          960008508003P-CLIP PLAT SECU 6,3 RELAIS 5V          9255011380 E        N          OCM          
EXIS          960008518003P-CLIP PLAT SECU 6,3 RELAIS 5V          9255011380 E        N          OCM          
EXIS          960008878000P-CLIP PLAT MT5 LANG 6V                 9600088780OR        N          OCM          
EXIS          960032088003BAGUE RETRACTILE NOIRE                  9600320880 C        -          OCM          
EXIS          9600320880**BAGUE RETRACTILE NOIRE                                      -          OCM          
EXIS          960032098000GAINE THERMORETRACTABLE 15-6,4 L50      9600320980 D        -          OCM          
SUPP          9600320980**GAINE THERMORETRACTABLE 15-6,4 L50                          -          OCM          
EXIS          960032108003EMBOUT RETRACTILE                       9600321080 C        -          OCM          
EXIS          960044738002FOURREAU FAISCEAU VOLET AR              9600447380 E        -          OCM          
EXIS          960081598007THERMOCONTACT TEMPERATURE EAU           9558038180 U        F          EC           
EXIS          960091618000ENROULEUR CEINTURE SECURITE             9255666680AV        -          OCM          
EXIS          960106828001FILTRE ANTIPARASITAGE                   9612141680 J        F          OCM          
EXIS          960109308004P-CLIP PLAT MINI MT5 CARTE LANG 4V      9602986080 D        N          OCM          
EXIS          960109678004P-CLIP PLAT MINI MT5 CARTE LANG 2V      9602986080 D        N          OCM          
EXIS          960111787702COMMUTATEUR FEU BROUILLARD AR           9600518777 N        -          OCM          
EXIS          960111827702COMMUTATEUR SIGNAL DANGER               9600518777 N        -          OCM          
EXIS          960119798003CABLE ANTENNE RADIO                     9600829980 V        F          OCM          
EXIS          960127008003CLIP PLAT SECU 6                        9601270080 D        -          OCM          
EXIS          960133668013RESISTANCE                              7920067453 S        -          OCM          
EXIS          960133678013RESISTANCE                              7920067453 S        -          OCM          
EXIS          960133688013RESISTANCE                              7920067453 S        -          OCM          
EXIS          960133698013RESISTANCE                              7920067453 S        -          OCM          
EXIS          960133708013RESISTANCE                              7920067453 S        -          OCM          
EXIS          960133718013RESISTANCE                              7920067453 S        -          OCM          
EXIS          960134718000TUYAU 3,5-6,5 L2400 CAOUT               9253346880 K        -          OCM          
EXIS          960143448006CLIP ANNULE                             9601434480 F        N          OCM          
EXIS          960143458006CLIP ANNULE                             9601434480 F        N          OCM          
EXIS          960143468006CLIP ANNULE                             9601434480 F        N          OCM          
EXIS          960148788000PASSE-GAINE FAISCEAU                    9601487880 A        -          OCM          
EXIS          960148808005PASSE-GAINE                             9601488080 E        -          OCM          
EXIS          960148818007PASSE-GAINE                             9601488180 G        -          OCM          
EXIS          960148838003PASSE-GAINE                             9601488380 D        -          OCM          
EXIS          960155978001P-CLIP PLAT MIC 1 9V                    9617328480OR        -          OCM          
EXIS          960184238001RELAIS DIODE                            9750410480AA        F          OCM          
EXIS          960193858000CLIP PLAT MIC 4                         9601938580OR        N          OCM          
EXIS          960193868004LANG PLATE MIC 4                        9601938680 D        N          OCM          
EXIS          960210828001LANIERE AGR L150 B7 GOUJ PLAS           9602108280 B        -          OCM          
EXIS          960224128000FOURREAU FAISCEAU PORTE                 9602241280 A        -          OCM          
EXIS          960234468003PASSE-GAINE ANNULE                      9602344680 C        N          OCM          
EXIS          960249658001P-CLIP PLAT SECU 5 SPECIAL 2V           9602496580 A        N          OCM          
EXIS          960275698006AGR SUPP TE 10 E1,2 PINC E0,7 E2,5 AC   9602756980 G        F          OCM          
EXIS          960279088000CAPUCHON P-CLIP PLAT SECU 5 2V          9602790880OR        -          OCM          
EXIS          960286218003P-CLIP PLAT H3 TCF 10V                  9602862180 E        N          OCM          
EXIS          960286228003P-CLIP PLAT H3 TCM 10V                  9602862280 D        N          OCM          
EXIS          960286238003P-CLIP PLAT H3 TCF 14V                  9602862380 E        N          OCM          
EXIS          960286278004P-CLIP PLAT H3 TCM 14V                  9602862780 E        N          OCM          
EXIS          960286348004P-CLIP PLAT H3 TCF 23V                  9602863480 J        N          OCM          
EXIS          960286418007P-CLIP PLAT H3 TCM 23V                  9602864180 K        N          OCM          
EXIS          960286428001ECROU ENCOCHE FIXATION P-CLIP           9609387280 C        N          OCM          
EXIS          960286438001ECROU ENCOCHE FIXATION P-CLIP           9609387280 C        N          OCM          
EXIS          960286458001ECROU ENCOCHE FIXATION P-CLIP           9609387280 C        N          OCM          
EXIS          960286698005GAINE                                   9602866980 E        -          OCM          
EXIS          960286708000GAINE                                   9602867080OR        -          OCM          
EXIS          960298618000P-CLIP J-TIMER AXIAL PROJECTEUR 3V      9602986180OR        N          OCM          
EXIS          960307538007CLIP PLAT H3                            9603075380 H        N          OCM          
EXIS          960316728001PASSE-GAINE                             9603167280 C        -          OCM          
EXIS          960317078006CONTACTEUR                              9603170780 J        -          OCM          
EXIS          960323188001COUVERCLE                               9603231880 A        N          OCM          
EXIS          960323208002P-CLIP PLAT MIC 4 7V                    9603232080 B        N          OCM          
EXIS          960323218002DESIGNATION ANNULEE                     9603232180 B        N          OCM          
EXIS          960323228002DESIGNATION ANNULEE                     9603232280 B        N          OCM          
EXIS          960323238002DESIGNATION ANNULEE                     9603232380 B        N          OCM          
EXIS          960323248002DESIGNATION ANNULEE                     9603232480 B        N          OCM          
EXIS          960324828000P-CLIP J-TIMER AXIAL PROJECTEUR 3V      9603248280OR        N          OCM          
EXIS          960327358003PASSE-GAINE                             9603273580 C        -          OCM          
EXIS          960333608001P-LANG PLATE MIC 4 13V                  9603469780 A        N          OCM          
EXIS          960333828003GAINE THERMORETRACTABLE 5,7-1,3 L50     9603338280 F        -          OCM          
EXIS          960333838002GAINE THERMORETRACTABLE 7,4-1,7 L50     9603338280 F        -          OCM          
EXIS          960333888003P-LANG PLATE MIC 4 ETC 5V               9603338880 C        -          OCM          
EXIS          960333898003P-LANG PLATE MIC 4 ETC 7V               9603338980 C        -          OCM          
EXIS          960333978004P-MODULE LANG PLATE MIC 4 2M            9603339780 D        N          OCM          
EXIS          960333988002P-CLIP MTIS VERR 5V                     9603339880 C        N          OCM          
EXIS          960333998004P-CLIP MTIS VERR 7V                     9603339980 E        N          OCM          
EXIS          960334008002P-CLIP MTIS VERR 11V                    9603340180 C        N          OCM          
EXIS          960334018002P-CLIP MTIS VERR 11V                    9603340180 C        N          OCM          
EXIS          960334028002P-CLIP MTIS VERR 15V                    9603340280 C        N          OCM          
EXIS          960334038002P-CLIP MTIS VERR 15V                    9603340280 C        N          OCM          
EXIS          960334048002P-CLIP MTIS VERR 15V                    9603340280 C        N          OCM          
EXIS          960334108003CLIP PLAT H3                            9603341080 C        N          OCM          
EXIS          960343438004MODULE P-CLIP PLAT H3 7V                9603434380 E        N          OCM          
EXIS          960343448002MODULE P-LANG PLATE 8 2V                9603434480 B        -          OCM          
EXIS          960343458003MODULE P-CLIP PLAT 8 2V                 9603434580 C        -          OCM          
EXIS          960343478004P-MODULE TCF 11M                        9603434780 D        *          OCM          
EXIS          960343488003P-MODULE TCM 11M                        9603434880 C        -          OCM          
EXIS          960343538001FAISCEAU D VOLET AR                     9603435380 A        -          OCM          
EXIS          960346338002GAINE THERMORETRACTABLE 10,8-2,5 L65    9603338280 F        -          OCM          
EXIS          960346518002P-CLIP PLAT MIC 4 5V                    9603465180 B        N          OCM          
EXIS          960346528002P-CLIP PLAT MIC 4 5V                    9603465180 B        N          OCM          
EXIS          960346538002P-CLIP PLAT MIC 4 5V                    9603465180 B        N          OCM          
EXIS          960346548002P-CLIP PLAT MIC 4 5V                    9603465180 B        N          OCM          
EXIS          960346588002P-CLIP PLAT MIC 4 7V                    9603465880 B        N          OCM          
EXIS          960346608001P-CLIP PLAT MIC 4 9V                    9603466080 A        N          OCM          
EXIS          960346618001P-CLIP PLAT MIC 4 9V                    9603466080 A        N          OCM          
EXIS          960346628001P-CLIP PLAT MIC 4 9V                    9603466080 A        N          OCM          
EXIS          960346638001P-CLIP PLAT MIC 4 9V                    9603466080 A        N          OCM          
EXIS          960346648001P-CLIP PLAT MIC 4 9V                    9603466080 A        N          OCM          
EXIS          960346658001P-CLIP PLAT MIC 4 9V                    9603466080 A        N          OCM          
EXIS          960346668001P-CLIP PLAT MIC 4 9V                    9603466080 A        N          OCM          
EXIS          960346708001P-CLIP PLAT MIC 4 9V                    9603466080 A        N          OCM          
EXIS          960346738001P-CLIP PLAT MIC 4 11V                   9603467380 B        N          OCM          
EXIS          960346748001P-CLIP PLAT MIC 4 11V                   9603467380 B        N          OCM          
EXIS          960346758001P-CLIP PLAT MIC 4 11V                   9603467380 B        N          OCM          
EXIS          960346768001P-CLIP PLAT MIC 4 13V                   9603467680 A        N          OCM          
EXIS          960346778001P-CLIP PLAT MIC 4 13V                   9603467680 A        N          OCM          
EXIS          960346788001P-CLIP PLAT MIC 4 13V                   9603467680 A        N          OCM          
EXIS          960346798001P-CLIP PLAT MIC 4 13V                   9603467680 A        N          OCM          
EXIS          960346808001P-CLIP PLAT MIC 4 13V                   9603467680 A        N          OCM          
EXIS          960346818001P-CLIP PLAT MIC 4 13V                   9603467680 A        N          OCM          
EXIS          960346828001P-CLIP PLAT MIC 4 13V                   9603467680 A        N          OCM          
EXIS          960346838001P-CLIP PLAT MIC 4 13V                   9603467680 A        N          OCM          
EXIS          960346848001P-CLIP PLAT MIC 4 13V                   9603467680 A        N          OCM          
EXIS          960346858001P-CLIP PLAT MIC 4 21V                   9603468580 A        N          OCM          
EXIS          960346878002P-LANG PLATE MIC 4 5V                   9603468780 B        N          OCM          
EXIS          960346888002P-LANG PLATE MIC 4 5V                   9603468780 B        N          OCM          
EXIS          960346898002P-LANG PLATE MIC 4 5V                   9603468780 B        N          OCM          
EXIS          960346908002P-LANG PLATE MIC 4 5V                   9603468780 B        N          OCM          
EXIS          960346918002P-LANG PLATE MIC 4 7V                   9603469180 B        N          OCM          
EXIS          960346928001P-LANG PLATE MIC 4 9V                   9603469280 B        N          OCM          
EXIS          960346938001P-LANG PLATE MIC 4 9V                   9603469280 B        N          OCM          
EXIS          960346948001P-LANG PLATE MIC 4 9V                   9603469280 B        N          OCM          
EXIS          960346958001P-LANG PLATE MIC 4 11V                  9603469580 A        N          OCM          
EXIS          960346968001P-LANG PLATE MIC 4 11V                  9603469580 A        N          OCM          
EXIS          960346978001P-LANG PLATE MIC 4 13V                  9603469780 A        N          OCM          
EXIS          960346988001P-LANG PLATE MIC 4 13V                  9603469780 A        N          OCM          
EXIS          960346998001P-LANG PLATE MIC 4 13V                  9603469780 A        N          OCM          
EXIS          960347008001P-LANG PLATE MIC 4 13V                  9603469780 A        N          OCM          
EXIS          960347018001P-LANG PLATE MIC 4 13V                  9603469780 A        N          OCM          
EXIS          960347038001P-LANG PLATE MIC 4 21V                  9603470380 A        N          OCM          
EXIS          960347818003P-LANG PLATE MIC 4 ETC 5V               9603338880 C        -          OCM          
EXIS          960347828003P-LANG PLATE MIC 4 ETC 7V               9603338980 C        -          OCM          
EXIS          960347838003P-LANG PLATE MIC 4 ETC 7V               9603338980 C        -          OCM          
EXIS          960347848004P-MODULE LANG PLATE MIC 4 2M            9603339780 D        N          OCM          
EXIS          960350228002P-CLIP MTIS NON VERR 15V                9603502280 C        N          OCM          
EXIS          960350238002P-CLIP MTIS NON VERR 15V                9603502280 C        N          OCM          
EXIS          960350418002P-CLIP MTIS VERR 15V                    9603340280 C        N          OCM          
EXIS          960354198001BAGUE ANNULEE                           9603541980 A        N          OCM          
EXIS          960354568000BOUCHONNAGE P-CLIP PLAT H3 TCF 23V DR   9613904380OR        -          OCM          
EXIS          960354578000BOUCHONNAGE P-CLIP PLAT H3 TCM 23V A287 9613904480OR        -          OCM          
EXIS          960354588000BOUCHONNAGE P-CLIP PLAT H3 TCF 14V DR   9613904380OR        -          OCM          
EXIS          960354598000BOUCHONNAGE P-CLIP PLAT H3 TCM 14V A287 9613904480OR        -          OCM          
EXIS          960354608000BOUCHONNAGE P-CLIP PLAT H3 TCF 10V DR   9613904380OR        -          OCM          
EXIS          960354618000BOUCHONNAGE P-CLIP PLAT H3 TCM 10V A0   9613904480OR        -          OCM          
EXIS          960362678001P-CLIP PLAT MIC 4 21V                   9603468580 A        N          OCM          
EXIS          960362688001P-LANG PLATE MIC 4 21V                  9603470380 A        N          OCM          
EXIS          960365488002GAINE THERMORETRACTABLE 17,7-4,5 L75    9603338280 F        -          OCM          
EXIS          960372378001P-CLIP PLAT MIC 4 9V                    9603466080 A        N          OCM          
EXIS          960373128002DESIGNATION ANNULEE                     9603731280 B        N          OCM          
EXIS          960373138002DESIGNATION ANNULEE                     9603731380 B        N          OCM          
EXIS          960380068000BOUCHONNAGE P-CLIP PLAT H3 TCM 10V DR   9613904380OR        -          OCM          
EXIS          960387418001P-LANG PLATE MIC 4 9V                   9603469280 B        N          OCM          
EXIS          960412498000AGR SUPP ENRUB 1T 36 TROU PLAS          9604124980OR        N          OCM          
EXIS          960412508002SUPPORT FAISCEAU                        9604125080 B        -          OCM          
EXIS          960413808000P-CLIP PLAT MIC 4 11V                   9603467380 B        N          OCM          
EXIS          960413878001P-CLIP PLAT MINI MT5 CARTE LANG 4V      9602986080 D        N          OCM          
EXIS          960413888001P-CLIP PLAT MINI MT5 CARTE LANG 6V      9602986080 D        N          OCM          
EXIS          960415758002PROTECTEUR MOTEUR ESSUIE-VITRE          9604157580 D        -          OCM          
EXIS          960424778001P-CLIP PLAT SECU 6,3 RELAIS 5V          9255011380 E        N          OCM          
EXIS          960428418000FAISCEAU BLINDE RADIO                   9604284180OR        -          OCM          
EXIS          960436638001FOURREAU                                9604366380 D        -          OCM          
EXIS          960446018001SUPPORT FAISCEAU                        9604460180 A        -          OCM          
EXIS          960464868002P-CLIP JP-TIMER AXIAL 4V                9604648680 C        N          OCM          
EXIS          960464888002P-CLIP JP-TIMER AXIAL 4V                9604648680 C        N          OCM          
EXIS          960465388000CAPUCHON P-CLIP J-TIMER AXIAL 4V        9604653880OR        N          OCM          
EXIS          960471148000PASSE-FIL                               9604711480 A        N          OCM          
EXIS          960471158002PASSE-GAINE 1T 2 B25X40 E1,0 CAOUT      9604711580 C        N          OCM          
EXIS          960475048000LANIERE AGR L87 B10 GOUJ PLAS           9604750480 B        N          OCM          
EXIS          960478128002ROTULE PASSE-GAINE                      9604781280 B        N          OCM          
EXIS          960484078000MOUSSE ADHESIVE 50 L50 E5               7553124180 B        -          OCM          
EXIS          960487698002MODULE P-LANG PLATE MIC 4 8V            9604880580 B        N          OCM          
EXIS          960487708002MODULE P-LANG PLATE MIC 4 7V            9604877080 B        N          OCM          
EXIS          960487728001EJECTEUR P-CLIP MTIS 5V                 9616507480OR        N          OCM          
EXIS          960487818001EJECTEUR P-CLIP MTIS 7V                 9616507480OR        N          OCM          
EXIS          960487828000EJECTEUR P-CLIP MTIS 15V                9604878280OR        N          OCM          
EXIS          960488028001EJECTEUR P-CLIP MTIS 11V                9616507480OR        N          OCM          
EXIS          960488038003MODULE P-LANG PLATE MIC 4 5V            9604880380 C        N          OCM          
EXIS          960488048003MODULE P-LANG PLATE MIC 4 4V            9604880480 C        N          OCM          
EXIS          960488058002MODULE P-LANG PLATE MIC 4 8V            9604880580 B        N          OCM          
EXIS          9604893980**BOUCHONNAGE P-LANG MIC 4 ETC 2V COURT   9604892980 C        -          OCM          
EXIS          9604894080**BOUCHONNAGE P-LANG MIC 4 ETC 3V COURT   9604892980 C        -          OCM          
EXIS          9604894180**BOUCHONNAGE P-LANG MIC 4 ETC 4V COURT   9604892980 C        -          OCM          
EXIS          9604894380**BOUCHONNAGE P-LANG MIC 4 ETC 7V COURT   9604892980 C        -          OCM          
EXIS          960497528004PASSE-GAINE                             9604975280 D        N          OCM          
EXIS          9604978680**BOUCHONNAGE P-LANG MIC 4 ETC 9V         9604978680 B        -          OCM          
EXIS          9604978780**BOUCHONNAGE P-LANG MIC 4 ETC 15V        9604978680 B        -          OCM          
EXIS          960500138002MODULE P-LANG PLATE MIC 4 7V            9604877080 B        N          OCM          
EXIS          960541528000JOINT VIS P-CLIP JP-TIMER RADIAL        9605415280OR        N          OCM          
EXIS          960546048002P-CLIP MTIS VERR 5V                     9603339880 C        N          OCM          
EXIS          960562018000P-CLIP PLAT MINI MT5 CARTE OREILLE 6V   9602985980 C        N          OCM          
EXIS          960564628001P-CLIP MTIS VERR 15V                    9603340280 C        N          OCM          
EXIS          9605745580**BOUCHONNAGE P-LANG MIC 4 ETC 2V LONG    9604892980 C        -          OCM          
EXIS          9605745680**BOUCHONNAGE P-LANG MIC 4 ETC 3V LONG    9604892980 C        -          OCM          
EXIS          9605861580**BOUCHONNAGE P-LANG MIC 4 ETC 4V LONG    9605861280OR        -          OCM          
EXIS          9605861680**BOUCHONNAGE P-LANG MIC 4 ETC 5V LONG    9605861280OR        -          OCM          
EXIS          960587068001P-CLIP PLAT FUSIBLE 5 3V                9605870680 A        N          OCM          
EXIS          960592248000BOUCHONNAGE P-CLIP PLAT H3 TCM 14V A180 9613904480OR        -          OCM          
EXIS          960595788003AGR ANNULEE                             9605957880 D        N          OCM          
EXIS          960601158000BOUCHONNAGE P-CLIP PLAT H3 TCM 14V A0   9613904480OR        -          OCM          
EXIS          960608108001CLIP DRAPEAU 6,35                       9606081080 A        N          OCM          
EXIS          960608138000COSSE 4 PLAGE 8,5 PLATE                 9606081380OR        N          OCM          
EXIS          960608158000COSSE 6 PLAGE 10,5 PLATE                9606081580OR        N          OCM          
EXIS          960608168001COSSE 8 PLAGE 15 PLATE                  9606081680 A        N          OCM          
EXIS          960608198000LANG PLATE SECU 6,35                    9606081980OR        N          OCM          
EXIS          960616498000SERRE-CABLE P-CLIP JP-TIMER RADIAL      9606164980OR        N          OCM          
EXIS          960616508000SERRE-CABLE P-CLIP JP-TIMER RADIAL      9606165080OR        N          OCM          
EXIS          960616518000SERRE-CABLE P-CLIP JP-TIMER RADIAL      9606165180OR        N          OCM          
EXIS          960616528000SERRE-CABLE P-CLIP JP-TIMER RADIAL      9606165280OR        N          OCM          
EXIS          960616538000SERRE-CABLE P-CLIP JP-TIMER RADIAL      9606165380OR        N          OCM          
EXIS          960618718001P-CLIP PLAT SECU 5 1V                   9606187180 A        N          OCM          
EXIS          960618728001P-CLIP PLAT SECU 5 1V                   9606187180 A        N          OCM          
EXIS          960618738001P-CLIP PLAT SECU 5 1V                   9606187180 A        N          OCM          
EXIS          960618748001P-CLIP PLAT SECU 5 1V                   9606187180 A        N          OCM          
EXIS          960618758001P-CLIP PLAT SECU 5 1V                   9606187180 A        N          OCM          
EXIS          960618768001P-CLIP PLAT SECU 5 1V                   9606187180 A        N          OCM          
EXIS          960618778001P-CLIP PLAT SECU 5 1V                   9606187180 A        N          OCM          
EXIS          960618788001P-CLIP PLAT SECU 5 1V                   9606187180 A        N          OCM          
EXIS          960618798001P-CLIP PLAT SECU 5 1V                   9606187180 A        N          OCM          
EXIS          960618818001P-CLIP PLAT SECU 5 1V                   9606187180 A        N          OCM          
EXIS          960620837701COMMUTATEUR RECYCLAGE                   9600518777 Q        -          OCM          
EXIS          960622108001PASSE-GAINE                             9252500680 C        N          OCM          
EXIS          960629818000PASSE-FIL P-CLIP JP-TIMER RADIAL        9606298180OR        N          OCM          
EXIS          960629828000PASSE-FIL P-CLIP JP-TIMER RADIAL        9606298180OR        N          OCM          
EXIS          960629848000PASSE-FIL P-CLIP JP-TIMER RADIAL        9606298480OR        N          OCM          
EXIS          960629858000PASSE-FIL P-CLIP JP-TIMER RADIAL        9606298580OR        N          OCM          
EXIS          960643158001AGR MAINT VAR 1T 12 STUD PLAS           9606431580 A        -          OCM          
EXIS          960643918002GAINE                                   9606439180 B        -          OCM          
EXIS          960644058002GAINE                                   9606440580 B        -          OCM          
EXIS          960652178002AGR SUPP VAR 1T 18 PINC E0,5 E3,0 PLAS  9606521780 C        F          OCM          
EXIS          960653708000PASSE-GAINE                             9606537080 C        -          OCM          
EXIS          960653718001FOURREAU FAISCEAU PORTE                 9606537180 G        -          OCM          
EXIS          960653728002FOURREAU FAISCEAU PORTE                 9606537280 F        -          OCM          
EXIS          960660928001P-CLIP PLAT SECU 6,3 RELAIS 5V          9255011380 E        N          OCM          
EXIS          960660948001PASSE-GAINE SURMOULE FAISCEAU           9606609480 E        N          OCM          
EXIS          960664388004COUVERCLE                               9606643880 E        -          OCM          
EXIS          960667508001CABLE ANTENNE RADIO                     9600829980 V        F          OCM          
EXIS          960680378001LANIERE AGR L87 B10 GOUJ PLAS           9606803780 A        -          OCM          
EXIS          960681168000PASSE-GAINE 6 D20 E0,9 CAOUT            9606811680 B        N          OCM          
EXIS          960684338001PASSE-GAINE ANNULE                      9606843380 D        N          OCM          
EXIS          960684758002P-CLIP PLAT H3 TCF 2V                   9606847580 B        N          OCM          
EXIS          960685988000RELAIS INVERSEUR RESISTANCE 25A         9750410480 Y        F          OCM          
EXIS          960686498001P-DOUILLE SOUDEE 4 4V                   9606864980 A        N          OCM          
EXIS          960686928000BONNETTE FEU                            9606869280OR        -          OCM          
EXIS          960688318002PASSE-GAINE 5 B30X51 E1,5 CAOUT         9606883180 C        N          OCM          
EXIS          960689138002BOITE FUSIBLE                           9559873780 L        F          OCM          
EXIS          960693398000DOUILLE 4 SOUDEE                        9606933980OR        N          OCM          
EXIS          960695618000MANCHON                                 9606956180OR        -          OCM          
EXIS          960695628001MANCHON                                 9606956280 A        -          OCM          
EXIS          960695648000COUVERCLE                               9606956480 B        -          OCM          
EXIS          960695658001BAGUE ANNULEE                           9606956580 B        -          OCM          
EXIS          960705318003CONDENSATEUR ANTIPARASITAGE             9600989580 F        F          OCM          
EXIS          960705908000AGR ANNULEE                             9607059080OR        -          OCM          
EXIS          960721258001P-LANG PLATE MIC 4 ETC 5V               9603338880 C        -          OCM          
EXIS          960721268001P-LANG PLATE MIC 4 ETC 5V               9603338880 C        -          OCM          
EXIS          960721278001P-LANG PLATE MIC 4 ETC 5V               9603338880 C        -          OCM          
EXIS          960721288001P-LANG PLATE MIC 4 ETC 7V               9603338980 C        -          OCM          
EXIS          960721578002GAINE THERMORETRACTABLE 9,5-1,5 L35     9607215780 E        -          OCM          
EXIS          960732198001BORNE EQUIPOTENTIELLE MIC4 13V          9607321980 A        -          OCM          
EXIS          960732208001DESIGNATION ANNULEE                     9607321980 A        N          OCM          
EXIS          960732218001DESIGNATION ANNULEE                     9607321980 A        N          OCM          
EXIS          960732228001DESIGNATION ANNULEE                     9607321980 A        N          OCM          
EXIS          960736638000BAGUE PASSE GAINE                       9607366380OR        -          OCM          
EXIS          960742508000BOUCHONNAGE P-CLIP J-TIMER 25V FORME D  9607425080OR        -          OCM          
EXIS          960742518001BOUCHONNAGE P-CLIP J-TIMER 35V FORME I  9607425180 A        -          OCM          
EXIS          960742528000BOUCHONNAGE P-CLIP J-TIMER 35V FORME E  9607425280OR        -          OCM          
EXIS          960743898000BOUCHONNAGE P-CLIP PLAT H3 TCM 23V DR   9613904380OR        -          OCM          
EXIS          960747448000BOUCHONNAGE P-CLIP PLAT H3 TCF 2V A180  9607474480OR        N          OCM          
EXIS          960747458000COSSE 8 PLAGE 20 PLATE                  9607474580OR        N          OCM          
EXIS          960751218000PASSE-GAINE 2T 17 17 D45 E0,8 CAOUT     9607512180OR        N          OCM          
EXIS          960751738000P-CLIP PLAT MIC 4 4V                    9607517380OR        N          OCM          
EXIS          960767488000AGRAFE P-CLIP PLAT MT5                  9607674880 B        N          OCM          
EXIS          960774428002AGR K SUPP VAR 1T 25 PINC E0,7 E3,0 PLAS9607744280 C        F          OCM          
EXIS          960777418001EMBOUT ANNULE                           9607774180 A        N          OCM          
EXIS          960779228004FOURREAU FAISCEAU VOLET AR              9607792280 G        -          OCM          
EXIS          960780238003PROTECTEUR FAISCEAU                     9607802380 C        -          OCM          
EXIS          960787018000RELAIS INVERSEUR RESISTANCE 25A         9750410480 Y        F          OCM          
EXIS          9607916980**BOUCHONNAGE P-CLIP PLAT H3 TCF 23V LONG 9603545680 J        N          OCM          
EXIS          960792168000PASSE-GAINE                             9607921680OR        -          OCM          
EXIS          960792198000PASSE-GAINE                             9607921980OR        -          OCM          
EXIS          960792208000FOURREAU FAISCEAU MOTEUR                9607922080 B        -          OCM          
EXIS          960792428000BOUCHONNAGE P-CLIP J-TIMER 35V FORME B  9607924280OR        N          OCM          
EXIS          960796848004P-CLIP PLAT SECU 6,3 8 RELAIS 4V        9607968480 D        -          OCM          
EXIS          960796928001EMBOUT GAINE ANF 23                     9607774180 A        N          OCM          
EXIS          960803808000COSSE ECROU 5 PLAGE RONDE 16            9608038080OR        N          OCM          
EXIS          960803818000COSSE ECROU 6 PLAGE CARREE 14           9608038180OR        N          OCM          
EXIS          960804118002PASSE-GAINE SPEC B40X25 E0,7 CAOUT      9608041180 B        -          OCM          
EXIS          960806518000PASSE-GAINE SURMOULE FAISCEAU           9608065180OR        -          OCM          
EXIS          960806528000SURMOULAGE DOUILLE 5,5 2V               9608065280OR        -          OCM          
EXIS          960815328000DOUILLE 4 FENDUE                        9608153280 A        N          OCM          
EXIS          960816898001TUYAU LAVE-VITRE                        9608168980BA        -          OCM          
SUPP          9608168980**TUYAU LAVE-VITRE                                            -          OCM          
EXIS          960819608000PROTECTEUR FAISCEAU                     9608196080OR        -          OCM          
EXIS          960842208002PASSE-GAINE 1T 16 B30X50 E1,5 CAOUT     9608422080 C        N          OCM          
EXIS          960842488000COSSE ECROU 5 PLAGE CARREE 13           9608424880OR        N          OCM          
EXIS          960857628001EMBOUT ANNULE                           9607774180 A        N          OCM          
EXIS          960857638001EMBOUT ANNULE                           9607774180 A        N          OCM          
EXIS          960857648001EMBOUT GAINE ANF 13                     9607774180 A        -          OCM          
EXIS          960857658001EMBOUT GAINE ANF 16                     9607774180 A        N          OCM          
EXIS          960857668001EMBOUT GAINE ANF 19                     9607774180 A        N          OCM          
EXIS          960866268000AGR SUPP TE 10 E1,2 COLL PLAST          9608662680 A        N          OCM          
EXIS          960871928007DEMARREUR                               9753082480 R        F          OCM          
EXIS          960882548000LANG PLATE SECU 5                       9608825480OR        N          OCM          
EXIS          960882558000LANG PLATE SECU 5                       9608825480OR        N          OCM          
EXIS          960882578000LANG PLATE SECU 5                       9608825480OR        N          OCM          
EXIS          960887318001GAINE THERMORETRACTABLE 20-4 L30        9641252180 F        -          OCM          
SUPP          960887318002GAINE THERMORETRACTABLE 20-4 L30                            -          OCM          
EXIS          960887328000GAINE ADHESIVE THERMOFUSIBLE 9,5 L15    9608873280OR        -          OCM          
EXIS          960903418001AGR MAINT BRIDE 1T 5 STUD PLAS          9609034180 B        -          OCM          
EXIS          960910218002PASSE-GAINE ANNULE                      9609102180 D        N          OCM          
EXIS          960929048000AGR SUPP LANIERE GOUJ PLAS              9609290480OR        N          OCM          
EXIS          960931328006DEMARREUR                               9753082480 R        F          OCM          
EXIS          960933878000BOUCHONNAGE P-CLIP J-TIMER 25V FORME D  9609338780OR        -          OCM          
EXIS          960947478002BOITIER SUPPORT                         9609474780 B        -          OCM          
EXIS          960956188002FILTRE ANTIPARASITAGE                   9612141680 J        F          OCM          
EXIS          960956198000CONDENSATEUR ANTIPARASITAGE             9609561980OR        -          OCM          
EXIS          960972468000P-LANG PLATE MIC 4 9V                   9603469280 B        N          OCM          
EXIS          960973887701INTERRUPTEUR POUSSOIR AIR CONDITIONNE   9600518777 Q        -          OCM          
EXIS          960974958000P-CLIP JP-TIMER AXIAL RADIO 8V          9611136180 C        N          OCM          
EXIS          960975038000PASSE-FIL P-CLIP JP-TIMER RADIAL        9609750380OR        N          OCM          
EXIS          960975048000PASSE-FIL P-CLIP JP-TIMER RADIAL        9609750380OR        N          OCM          
EXIS          960975058000SERRE-CABLE P-CLIP JP-TIMER RADIAL      9609750580OR        N          OCM          
EXIS          960975068000SERRE-CABLE P-CLIP JP-TIMER RADIAL      9609750680OR        N          OCM          
EXIS          960975088000SERRE-CABLE P-CLIP JP-TIMER RADIAL      9609750880OR        N          OCM          
EXIS          960975098000SERRE-CABLE P-CLIP JP-TIMER RADIAL      9609750980OR        N          OCM          
EXIS          960975128000PASSE-FIL P-CLIP JP-TIMER RADIAL        9609751280OR        N          OCM          
EXIS          960975138000PASSE-FIL P-CLIP JP-TIMER RADIAL        9609751280OR        N          OCM          
EXIS          960975148000PASSE-FIL P-CLIP JP-TIMER RADIAL        9609751480OR        N          OCM          
EXIS          960977008001PASSE-GAINE 1T 10 D14 E4,0 CAOUT        9609770080 A        N          OCM          
EXIS          960983358003CAPTEUR OXYGENE                         9609833580 M        F          OCM          
EXIS          960984328001BRUITEUR                                9600939880 C        F          OCM          
EXIS          960988768003P-CLIP PLAT 8 FUSIBLE                   9609887680 D        -          OCM          
EXIS          960988778001COUVERCLE P-CLIP PLAT 8 FUSIBLE         9609887780 B        -          OCM          
EXIS          961006268000BOUCHONNAGE P-CLIP PLAT H3 TCM 14V DR   9613904380OR        -          OCM          
EXIS          961025238001TUYAU LAVE-VITRE                        9608168980AT        -          OCM          
EXIS          9610252380**TUYAU LAVE-VITRE                                            -          OCM          
EXIS          961035228004BOITE FUSIBLE                           9610352280 H        F          OCM          
EXIS          961035228005BOITE FUSIBLE                           9610352280 J        F          EC           
EXIS          961036917703ALLUME-CIGARE                           9752212777QF        F          OCM          
EXIS          961039608000P-BROCHE 2,5 12V                        9610396080OR        N          OCM          
EXIS          961039628000BROCHE 2,5                              9610396280OR        N          OCM          
EXIS          961039638000BROCHE 2,5                              9610396380OR        N          OCM          
EXIS          961039898000P-CLIP PLAT H3 TCF 6V                   9610398980OR        N          OCM          
EXIS          961039908000P-CLIP PLAT H3 TCM 6V                   9610399080OR        N          OCM          
EXIS          961041238005AGR SUPP CONNECTEUR TROU PLAS           9610412380 F        F          OCM          
EXIS          961046787701COMMUTATEUR PROJECTEUR BROUILLARD       9600518777 Q        -          OCM          
EXIS          961049068001OEILLET                                 9610490680 A        -          OCM          
EXIS          961060458001SUPP 3T 4,8 4,8 ANF 13 FIXE PLAS        9610604580 B        -          OCM          
EXIS          961060628000PASSE-GAINE                             9610606280OR        -          OCM          
EXIS          961062828000CLIP PLAT 8                             9610628280OR        N          OCM          
EXIS          961062838000CLIP PLAT 8                             9610628280OR        N          OCM          
EXIS          961062848000CLIP PLAT SECU 6 SPECIAL                9610628480OR        N          OCM          
EXIS          961063088006PROTECTEUR FAISCEAU                     9610630880 L        -          OCM          
EXIS          961066008002FOURREAU FAISCEAU PORTE AR              9610660080 B        -          OCM          
EXIS          961075908001CLIP PLAT MIC 4                         9610759080 B        N          OCM          
